{
  "_format": "hh-sol-artifact-1",
  "contractName": "B",
  "sourceName": "contracts/A.sol",
  "abi": [
    {
      "inputs": [
        {
          "internalType": "address",
          "name": "_A",
          "type": "address"
        }
      ],
      "stateMutability": "nonpayable",
      "type": "constructor"
    },
    {
      "inputs": [],
      "name": "getB",
      "outputs": [
        {
          "internalType": "uint256",
          "name": "",
          "type": "uint256"
        }
      ],
      "stateMutability": "view",
      "type": "function"
    },
    {
      "inputs": [
        {
          "internalType": "uint256",
          "name": "_b",
          "type": "uint256"
        }
      ],
      "name": "setB",
      "outputs": [],
      "stateMutability": "nonpayable",
      "type": "function"
    }
  ],
  "bytecode": "0x608060405234801561001057600080fd5b506040516103743803806103748339818101604052810190610032919061008e565b80600160006101000a81548173ffffffffffffffffffffffffffffffffffffffff021916908373ffffffffffffffffffffffffffffffffffffffff16021790555050610100565b600081519050610088816100e9565b92915050565b6000602082840312156100a057600080fd5b60006100ae84828501610079565b91505092915050565b60006100c2826100c9565b9050919050565b600073ffffffffffffffffffffffffffffffffffffffff82169050919050565b6100f2816100b7565b81146100fd57600080fd5b50565b6102658061010f6000396000f3fe608060405234801561001057600080fd5b50600436106100365760003560e01c806309cdcf9b1461003b578063a1c5191514610057575b600080fd5b61005560048036038101906100509190610136565b610075565b005b61005f610118565b60405161006c919061016e565b60405180910390f35b80600081905550600160009054906101000a900473ffffffffffffffffffffffffffffffffffffffff1673ffffffffffffffffffffffffffffffffffffffff1663ee919d506001836100c79190610189565b6040518263ffffffff1660e01b81526004016100e3919061016e565b600060405180830381600087803b1580156100fd57600080fd5b505af1158015610111573d6000803e3d6000fd5b5050505050565b60008054905090565b60008135905061013081610218565b92915050565b60006020828403121561014857600080fd5b600061015684828501610121565b91505092915050565b610168816101df565b82525050565b6000602082019050610183600083018461015f565b92915050565b6000610194826101df565b915061019f836101df565b9250827fffffffffffffffffffffffffffffffffffffffffffffffffffffffffffffffff038211156101d4576101d36101e9565b5b828201905092915050565b6000819050919050565b7f4e487b7100000000000000000000000000000000000000000000000000000000600052601160045260246000fd5b610221816101df565b811461022c57600080fd5b5056fea26469706673582212202bc125013a09a4bc6271ed79bc0f1ca17213ea22ae793c6e43da8aa60748496864736f6c63430008000033",
  "linkReferences": {},
  "deployedLinkReferences": {}
}