{
  "_format": "hh-sol-artifact-1",
  "contractName": "Hero",
  "sourceName": "contracts/Hero.sol",
  "abi": [
    {
      "inputs": [
        {
          "internalType": "enum Hero.Class",
          "name": "class",
          "type": "uint8"
        }
      ],
      "name": "createHero",
      "outputs": [],
      "stateMutability": "payable",
      "type": "function"
    },
    {
      "inputs": [],
      "name": "getHeroes",
      "outputs": [
        {
          "internalType": "uint256[]",
          "name": "",
          "type": "uint256[]"
        }
      ],
      "stateMutability": "view",
      "type": "function"
    }
  ],
  "bytecode": "0x608060405234801561001057600080fd5b50610335806100206000396000f3fe6080604052600436106100295760003560e01c80635e7e236d1461002e5780639a8d28821461004a575b600080fd5b6100486004803603810190610043919061016b565b610075565b005b34801561005657600080fd5b5061005f6100c2565b60405161006c9190610259565b60405180910390f35b66b1a2bc2ec500003410156100bf576040517f08c379a00000000000000000000000000000000000000000000000000000000081526004016100b69061027b565b60405180910390fd5b50565b60606000803373ffffffffffffffffffffffffffffffffffffffff1673ffffffffffffffffffffffffffffffffffffffff16815260200190815260200160002080548060200260200160405190810160405280929190818152602001828054801561014c57602002820191906000526020600020905b815481526020019060010190808311610138575b5050505050905090565b600081359050610165816102ef565b92915050565b60006020828403121561017d57600080fd5b600061018b84828501610156565b91505092915050565b60006101a0838361024a565b60208301905092915050565b60006101b7826102ab565b6101c181856102c3565b93506101cc8361029b565b8060005b838110156101fd5781516101e48882610194565b97506101ef836102b6565b9250506001810190506101d0565b5085935050505092915050565b60006102176016836102d4565b91507f506c656173652073656e64206d616f72206d6f6e6579000000000000000000006000830152602082019050919050565b610253816102e5565b82525050565b6000602082019050818103600083015261027381846101ac565b905092915050565b600060208201905081810360008301526102948161020a565b9050919050565b6000819050602082019050919050565b600081519050919050565b6000602082019050919050565b600082825260208201905092915050565b600082825260208201905092915050565b6000819050919050565b600381106102fc57600080fd5b5056fea2646970667358221220400bf80746f0c1b282b4d8c3c5523109597b35fba2eb1d2a636ace767cf3613264736f6c63430008000033",
  "linkReferences": {},
  "deployedLinkReferences": {}
}