{
  "_format": "hh-sol-artifact-1",
  "contractName": "Counter",
  "sourceName": "contracts/Counter.sol",
  "abi": [
    {
      "inputs": [],
      "name": "count",
      "outputs": [],
      "stateMutability": "nonpayable",
      "type": "function"
    },
    {
      "inputs": [],
      "name": "getCounter",
      "outputs": [
        {
          "internalType": "uint256",
          "name": "",
          "type": "uint256"
        }
      ],
      "stateMutability": "view",
      "type": "function"
    }
  ],
  "bytecode": "0x608060405234801561001057600080fd5b50610336806100206000396000f3fe608060405234801561001057600080fd5b50600436106100365760003560e01c806306661abd1461003b5780638ada066e14610045575b600080fd5b610043610063565b005b61004d6100bd565b60405161005a9190610203565b60405180910390f35b60008081548092919061007590610277565b91905055506100bb6040518060400160405280600e81526020017f436f756e746572206973206e6f770000000000000000000000000000000000008152506000546100c6565b565b60008054905090565b61015e82826040516024016100dc9291906101d3565b6040516020818303038152906040527f9710a9d0000000000000000000000000000000000000000000000000000000007bffffffffffffffffffffffffffffffffffffffffffffffffffffffff19166020820180517bffffffffffffffffffffffffffffffffffffffffffffffffffffffff8381831617835250505050610162565b5050565b60008151905060006a636f6e736f6c652e6c6f679050602083016000808483855afa5050505050565b60006101968261021e565b6101a08185610229565b93506101b0818560208601610244565b6101b9816102ef565b840191505092915050565b6101cd8161023a565b82525050565b600060408201905081810360008301526101ed818561018b565b90506101fc60208301846101c4565b9392505050565b600060208201905061021860008301846101c4565b92915050565b600081519050919050565b600082825260208201905092915050565b6000819050919050565b60005b83811015610262578082015181840152602081019050610247565b83811115610271576000848401525b50505050565b60006102828261023a565b91507fffffffffffffffffffffffffffffffffffffffffffffffffffffffffffffffff8214156102b5576102b46102c0565b5b600182019050919050565b7f4e487b7100000000000000000000000000000000000000000000000000000000600052601160045260246000fd5b6000601f19601f830116905091905056fea2646970667358221220c6af74c4d6d7c1b2ca1d614fe00cb519113a304958d354ba1f5ba3be1b2668e664736f6c63430008000033",
  "linkReferences": {},
  "deployedLinkReferences": {}
}