{
  "_format": "hh-sol-artifact-1",
  "contractName": "Counter",
  "sourceName": "contracts/Counter.sol",
  "abi": [
    {
      "anonymous": false,
      "inputs": [
        {
          "indexed": true,
          "internalType": "address",
          "name": "addr",
          "type": "address"
        },
        {
          "indexed": false,
          "internalType": "uint256",
          "name": "counter",
          "type": "uint256"
        }
      ],
      "name": "CounterInc",
      "type": "event"
    },
    {
      "inputs": [],
      "name": "count",
      "outputs": [],
      "stateMutability": "nonpayable",
      "type": "function"
    },
    {
      "inputs": [],
      "name": "getCounter",
      "outputs": [
        {
          "internalType": "uint256",
          "name": "",
          "type": "uint256"
        }
      ],
      "stateMutability": "view",
      "type": "function"
    }
  ],
  "bytecode": "0x608060405234801561001057600080fd5b50610386806100206000396000f3fe608060405234801561001057600080fd5b50600436106100365760003560e01c806306661abd1461003b5780638ada066e14610045575b600080fd5b610043610063565b005b61004d61010d565b60405161005a9190610253565b60405180910390f35b600080815480929190610075906102c7565b91905055506100bb6040518060400160405280600e81526020017f436f756e746572206973206e6f77000000000000000000000000000000000000815250600054610116565b3373ffffffffffffffffffffffffffffffffffffffff167fd56f0db0741b2e26dfe0a24dff412ebc539f46848126eaa9034f3529f2d60c036000546040516101039190610253565b60405180910390a2565b60008054905090565b6101ae828260405160240161012c929190610223565b6040516020818303038152906040527f9710a9d0000000000000000000000000000000000000000000000000000000007bffffffffffffffffffffffffffffffffffffffffffffffffffffffff19166020820180517bffffffffffffffffffffffffffffffffffffffffffffffffffffffff83818316178352505050506101b2565b5050565b60008151905060006a636f6e736f6c652e6c6f679050602083016000808483855afa5050505050565b60006101e68261026e565b6101f08185610279565b9350610200818560208601610294565b6102098161033f565b840191505092915050565b61021d8161028a565b82525050565b6000604082019050818103600083015261023d81856101db565b905061024c6020830184610214565b9392505050565b60006020820190506102686000830184610214565b92915050565b600081519050919050565b600082825260208201905092915050565b6000819050919050565b60005b838110156102b2578082015181840152602081019050610297565b838111156102c1576000848401525b50505050565b60006102d28261028a565b91507fffffffffffffffffffffffffffffffffffffffffffffffffffffffffffffffff82141561030557610304610310565b5b600182019050919050565b7f4e487b7100000000000000000000000000000000000000000000000000000000600052601160045260246000fd5b6000601f19601f830116905091905056fea26469706673582212203706bbccfedaaa725d3e664e3feb6b31f5946e5bfddd07204df76935db582d4f64736f6c63430008000033",
  "linkReferences": {},
  "deployedLinkReferences": {}
}